:020000040800F2
:1000000080580020DD0100088B0500082705000846
:100010008905000883040008E509000800000000C5
:100020000000000000000000000000004501000882
:10003000850400080000000089010008F906000896
:10004000F7010008F7010008F7010008F7010008B0
:10005000F7010008F7010008F7010008F7010008A0
:10006000F7010008F7010008F7010008F701000890
:10007000F7010008F7010008F7010008F701000880
:10008000F7010008F7010008F7010008F701000870
:10009000F7010008F7010008F7010008F701000860
:1000A000F7010008F7010008F7010008F701000850
:1000B000F7010008F7010008F7010008F701000840
:1000C000F7010008F7010008F7010008F701000830
:1000D000F7010008CD070008F7010008F701000844
:1000E000F7010008F7010008F7010008F701000810
:1000F000F7010008F7010008F7010008F701000800
:10010000F7010008F7010008F7010008F7010008EF
:10011000F7010008F7010008F7010008F7010008DF
:10012000F7010008F7010008F7010008F7010008CF
:10013000DFF80CD000F068F900480047010F000814
:1001400080580020224B19680868B0E8F00F80F34F
:100150000988BFF36F8F4FF0000080F311884EF0D5
:100160000D0E70470000000006480068006880F32C
:10017000088862B661B6BFF34F8FBFF36F8F00DFA1
:1001800000BF00BF08ED00E0EFF30980BFF36F8F01
:100190000F4B1A6820E9F00F106008B54FF05000BF
:1001A00080F31188BFF34F8FBFF36F8F01F02EFCE8
:1001B0004FF0000080F31188BDE808401968086816
:1001C000B0E8F00F80F30988BFF36F8F704700BF6E
:1001D000FC0F0020EFF305807047000006488047C1
:1001E00006480047FEE7FEE7FEE7FEE7FEE7FEE71C
:1001F000FEE7FEE7FEE7FEE70D0700083101000815
:1002000040EA01039B0703D009E008C9121F08C098
:10021000042AFAD203E011F8013B00F8013B521E18
:10022000F9D27047D2B201E000F8012B491EFBD28F
:1002300070470022F6E710B513460A4604461946F1
:10024000FFF7F0FF204610BD034611F8012B00F820
:10025000012B002AF9D11846704780EA010210B537
:1002600002F00043400022D04A001FD0010E01EBF3
:100270001261C0F35600C2F3560240F4000042F48B
:100280000002A0FB022000047F39140400D0401CAF
:1002900050EA124001D44000491EC2B20C0604EBE1
:1002A000D010401C4008802A02D003E0002010BD7E
:1002B00020F00100002900DA0020184310BD30B4FE
:1002C00080EA010202F0004530F0004221F00040D7
:1002D00013D090B1C30DD40DC2F31601C0F31600B4
:1002E000E41A41F4000140F400027D34914201D34C
:1002F000641C00E04900002C02DA30BC002070478A
:100300004FF400000023914201D3891A03434008AF
:100310004FEA4101F7D151B1914202D14FF0004172
:1003200005E002D24FF0010101E06FF0010103EBA3
:10033000C450284430BC00F02FB896230022114648
:1003400000F033B820F00040C10DC0F3160040F4B7
:1003500000007F2901DA00207047962903DCC1F1F3
:100360009601C840704796398840704730B50B46B3
:10037000014600202022012409E021FA02F59D42D5
:1003800005D303FA02F5491B04FA02F52844151EA9
:10039000A2F10102F1DC30BD0029A8BF7047401C6A
:1003A000490008BF20F00100704710B4B0FA80FC8B
:1003B00000FA0CF050EA010404BF10BC704749B1C8
:1003C000CCF1200421FA04F411FA0CF118BF012138
:1003D00021430843A3EB0C01CB1D4FEA00614FEA18
:1003E000102042BF002010BC704700EBC3501044E7
:1003F0000029A4BF10BC7047401C490008BF20F072
:10040000010010BC70470000064C074D06E0E06894
:1004100040F0010394E8070098471034AC42F6D34B
:10042000FFF78AFE80260008A026000870B58C1809
:1004300010F8015B15F0070301D110F8013B2A11F8
:1004400006D110F8012B03E010F8016B01F8016BE5
:100450005B1EF9D12B0705D40023521E0DD401F8E1
:10046000013BFAE710F8013BCB1A921C03E013F8AA
:10047000015B01F8015B521EF9D5A142D8D30020DF
:1004800070BDFEE77047F0B5CC78002204F00F0392
:10049000E40601D58C7823430C784FF00F0C14F050
:1004A000FF0F4FF0010E1BD005680E880EFA02F404
:1004B0002640A64210D196000CFA06F725EA070757
:1004C00003FA06F5CE783D43282E02D0482E02D0FE
:1004D00002E0446100E00461521C082AE5D3056093
:1004E0000A88FF2A1CD94468002202F108060EFA85
:1004F00006F50E882E40AE420ED196000CFA06F795
:10050000BC4303FA06F7CE783C43282E00D1456160
:10051000CE78482E00D10561521C082AE5D34460EC
:10052000F0BD01617047FEE738B50121082000F0F9
:100530002DF82020ADF8000010208DF803000320D6
:10054000104C8DF8020069462046FFF79CFF012100
:10055000ADF8001069462046FFF795FF0221ADF87F
:10056000001069462046FFF78EFF20212046FFF746
:10057000D8FF01212046FFF7D4FF02212046FFF7D4
:10058000D0FF38BD000C0140FEE77047044A002947
:10059000916901D0014300E08143916170470000FF
:1005A0000010024030B5204A5168204B11F00C0178
:1005B00003D0042901D0082901D0036012E051685A
:1005C000536801F470114FF0020413F4803F04EB00
:1005D000914102D053689B0301D5154B00E0134BAA
:1005E0005943016051680F2303EA1111114B5C5C00
:1005F0000168E14041605468072505EA14241C5D48
:1006000021FA04F48460546805EAD4241B5DD940BF
:10061000C1605268032303EA9232064B1B1F9A5CA7
:10062000B1FBF2F1016130BD0010024000127A000E
:1006300000093D00841000200CB5002226480092DD
:100640000192016841F4803101604FF4A0630168B8
:1006500001F4003101910099491C0091019911B9EF
:1006600000999942F3D10168890333D501210191A1
:100670001A490A6842F010020A600A6822F003026E
:100680000A600A6842F002020A60416841604168FB
:100690004160416841F480614160416821F47C110E
:1006A0004160416841F4E8114160016841F08071A6
:1006B000016001688901FCD5416821F003014160B6
:1006C000416841F0020141604168C1F381010229A2
:1006D000FAD10CBD01920CBD001002400020024076
:1006E00001B5044800231A466946806801F0BCFB46
:1006F00008BD00006010002010B501F0A3FD012826
:1007000003D0BDE8104001F037BA10BD0F4810B556
:10071000016841F00101016041680D4A11404160EA
:1007200001680C4A11400160016821F480210160D8
:10073000416821F4FE0141604FF41F018160FFF721
:100740007BFF05494FF00060086010BD00100240BB
:100750000000FFF8FFFFF6FE08ED00E08AB01A4E39
:1007600000244FF0FF386F46424608A9B06801F0F8
:10077000F3FBB4B1012C1AD0022C1ED0032CF3D100
:1007800079199DF8200088709DF800006D1CA84222
:10079000EAD1002364226946706801F0A9FA0024B6
:1007A000E2E79DF820005528DED10124DCE79DF822
:1007B00020008DF800000224D6E79DF820000025D7
:1007C0008DF801000324CFE76010002010B5084C1D
:1007D00040F22551204600F070F8002807D020464E
:1007E00000F0F8F8BDE81040C0B2FFF779BF10BDC7
:1007F000003801400029818902D041F4005101E014
:1008000021F400518181704710B586B00121042088
:10081000FFF7BCFE01218803FFF7B8FE4FF400701C
:10082000ADF8100018208DF8130003201C4C8DF833
:10083000120004A92046FFF726FE2115ADF810107E
:1008400004218DF8131004A92046FFF71CFE4FF475
:10085000E13000900020ADF80400ADF80600ADF8DE
:100860000800ADF80C000C200E4CADF80A006946EB
:10087000204600F059F801212046FFF7BBFF012276
:1008800040F22551204600F037F80749502081F802
:100890000004054920202139C1F8000106B010BD2F
:1008A000000801400038014025E000E00246002039
:1008B00012880A4200D00120704770B501F01F0570
:1008C00001260024C1F3421306FA05F2012B0FD0D2
:1008D000022B0FD0838A4FEA11210088134206FAB7
:1008E00001F600EA060001D000B10124204670BDE7
:1008F0008389F0E7038AEEE710B5C1F3421301F0F4
:100900001F040121A140012B07D0022B07D0143076
:10091000002A026805D00A4304E00C30F8E71030E2
:10092000F6E78A43026010BD30B50446008A85B000
:100930000D464CF6FF710840E98801432182A089E9
:100940004EF6F3110840A9882A8911436A890243A7
:100950001143A181A08A4FF6FF410840A9890143B4
:10096000A1826846FFF71EFE1948844201D1039810
:1009700000E00298A189090400EBC00101EB00101E
:10098000296801D5490000E08900B0FBF1F064223C
:10099000B0FBF2F109010B096FF018056B4300EB96
:1009A0008300A3891D044FF0320306D503EBC0007A
:1009B000B0FBF2F000F0070005E003EB0010B0FB25
:1009C000F2F000F00F000843208105B030BD0000B8
:1009D000003801408088C0F308007047C1F3080167
:1009E00081807047FEE70000004870476C100020CF
:1009F0001CB500220121402001F0D4F8094C00224E
:100A00002021A060052001F0CDF8606021460A2079
:100A1000CDE900010023C82203A1064801F094FBA0
:100A20001CBD00006010002050617273657254613B
:100A3000736B00005D0700080146064810B564228C
:100A4000406801F089FA012802D04FF0FF3010BD54
:100A5000002010BD6010002070B505460021552013
:100A600000F03CFA2878002100F038FA687800217C
:100A700000F034FA002405E028190021807800F005
:100A80002DFA641C2878A042F6DC012070BD0020FD
:100A9000704700000FB4054B10B503A9044A029833
:100AA00000F018F810BC5DF814FB0000DD0E000823
:100AB000A810002002E008C8121F08C1002AFAD1BD
:100AC00070477047002001E001C1121F002AFBD1CE
:100AD000704700002DE9FF4F8BB09A460F46054640
:100AE000002606E025280BD052460D9990476D1C34
:100AF000761C28780028F5D10FB03046BDE8F08F7D
:100B00000024A0460122604900E0044315F8013F9B
:100B1000203B02FA03F00842F7D128782E2817D19B
:100B200015F8010F44F004042A280ED06FF02F02AC
:100B30002878A0F1300109290AD808EB880102EBD6
:100B4000410100EB01086D1CF2E757F8048B6D1CA6
:100B5000287869283ED006DC0028CDD063280BD049
:100B6000642804D136E0732810D075284BD0524643
:100B70000D999047761C85E017F8040B8DF800005E
:100B800000208DF80100E946012003E057F8049B9E
:100B90004FF0FF3061074FF0000401D40AE0641CFD
:100BA00044450DDA8442FADB19F804100029F6D125
:100BB00006E0641C8442FCDB19F804100029F8D11B
:100BC000264404E019F8010B52460D999047641E23
:100BD000F8D257E001CF4FF00A0B002802DA40426A
:100BE0002D2102E0210504D52B218DF824100121AF
:100BF00003E0E10705D02021F7E70DF12009089176
:100C00000CE00021F9E701CF4FF00A0BF9E7594654
:100C1000FFF7ACFB01F1300209F8012D0028F6D1F5
:100C2000ADEB090000F1200B600701D44FF0010883
:100C3000D84502DDA8EB0B0000E000208046002430
:100C400006E009A85246005D0D999047641C761C89
:100C500008988442F5DB04E0302052460D99904715
:100C6000761CB8F10001A8F10108F5DC05E019F8DF
:100C7000010B52460D999047761CBBF10001ABF178
:100C8000010BF4DC6D1C34E7092801003EB5134C60
:100C90002078002820D100222021782000F082FF37
:100CA000A0600F480225A0F500710095CDE9011064
:100CB000002380220BA10D4801F076FA0C48009524
:100CC000A0F58061CDE901100023EA0109A10B48DC
:100CD00001F06AFA012020703EBD00003C100020A7
:100CE00000020020435254502D545800490E000871
:100CF0004C060020435254502D525800310D00082C
:100D000010B5044600222021102000F04BFF0249BC
:100D100041F8240010BD0000E0530020034A52F8BF
:100D200020004FF0FF3201F017B90000E05300201F
:100D3000174F184E88B0A7F10C0506F140046868FB
:100D4000B84221D08168684688470028F7D19DF8CD
:100D50000100000956F8200020B100235A1E694600
:100D600000F0C6FF9DF80100000954F8201019B1E9
:100D700054F8201068468847064814380168491C12
:100D8000016000F011FCDAE70A2000F093FDD6E7DD
:100D900048100020E05300200146034800235A1E5B
:100DA000806800F0A5BF00003C10002070B5094C21
:100DB0000546616811B109680020884715B12846C9
:100DC000656002E003480C3060600168BDE8704077
:100DD000012008473C1000200F20FFF791FF134D22
:100DE000134C4FF47A761E2711490F20FFF796FF18
:100DF000607810F003000BD00128F5D127701E2178
:100E0000A01CFFF716FA0BA1A01CFFF71DFA08E0C3
:100E1000688830B14FF47A714843B0FBF6F000F0C7
:100E200049FD0348FFF7B8FFDEE700005C10002033
:100E3000605400204269746372617A652043726174
:100E40007A79666C69650000124E134D88B04FF0D8
:100E5000FF37A6F10C046068B04216D03A466946E6
:100E6000A06801F079F80128F5D102E00A2000F02D
:100E700021FD60684168684688470028F6D06868A8
:100E8000401C686000F090FBE5E70A2000F012FDCE
:100E9000E1E7000048100020CC5300203EB5094C8B
:100EA000207800280CD1084A0346A2F516718DE877
:100EB0000700962205A1084801F076F9012020706C
:100EC0003EBD00005C100020F0080020435254504A
:100ED0002D53525600000000D90D000870B5074D83
:100EE0000446C1B22846FFF779FD80212846FFF766
:100EF000DDFC0028F9D0204670BD0000003801401C
:100F0000FFF712FBFFF780FCFFF772FDFFF76CFDA8
:100F1000FFF74CFFFFF7BAFEFFF7C0FF02A0FFF795
:100F2000B9FD00F039FDFEE7E8BF99E698AFE4B8F7
:100F300080E4B8AA5BE9878EE781AB5D2D53544D01
:100F40003332E585A8E7B3BBE58897E5BC80E58F3C
:100F500091E69DBF2DE58D95E58583E6B58BE8AFE0
:100F600095435254500D0A004FF0FF307047000077
:100F70002DE9F0411E4D0F460446EE682868001D1D
:100F800000F046FB38B9286890F82C100120884002
:100F9000296981432961601C15D1A7B115492A68C7
:100FA000486890602B688268DA602A688368121D3E
:100FB0005A602A68121D8260286841610868401CD6
:100FC0000860BDE8F08128683444B4424460296870
:100FD00005D2E86BBDE8F041091D00F04BBBA86BE2
:100FE000091D00F047FBA86A8442EAD2AC62E8E738
:100FF000FC0F0020B85300202DE9F041044600F01A
:1010000051FB354EB068401CB0603068334F10B1B2
:10101000706930B32BE03460B068012827D1002517
:1010200005EB850007EB800000F016FB6D1C202D02
:10103000F6D32B4800F010FB2948143000F00CFBCD
:101040002748283000F008FB25483C3000F004FB1E
:101050002348503000F000FB2148B0631430F063A7
:1010600005E03068E16AC06A884200D83460706A7E
:101070000121401C7062E06A326981401143316194
:1010800000EB800007EB80004068A0608168E160B1
:101090008268211D51608160E06A00EB800007EBEF
:1010A0008001616157F82010491C47F8201000F0BA
:1010B00031FB706900280CD03068E16AC06A884250
:1010C00007D208494FF080500860BFF34F8FBFF33D
:1010D0006F8FBDE8F0810000FC0F0020E850002079
:1010E0006853002004ED00E030B4026C0B46002A87
:1010F0000BD0C1681144C1608468A14201D301686A
:10110000C16030BC1846FFF77BB830BC70472DE992
:10111000F041856B164604460027026CFAB17EB199
:10112000E068FFF76DF8E168206C091AE160226859
:10113000914202D2A168081AE060022E0DD00EE0A2
:101140006068FFF75DF8216C606808446060A16822
:10115000884204D32068606001E005B16D1E6D1CFB
:10116000A5633846BDE8F08110B5044690F8490003
:1011700058B101280CD002280FD0BDE8104040F62D
:10118000957206A10BA0FFF785BC206B00F0F0FA6A
:101190002046BDE8104000F0EBBA10BD2E5C467250
:1011A000656552544F535C7372635C7461736B7307
:1011B0002E6300004572726F723A25732C25640D00
:1011C0000A0000000E484FF48041420706D0C01DBF
:1011D0000B4920F00700411AC1F58041094B00225C
:1011E0000144C3E900020839143B21F007011960EA
:1011F0004A600A600A1AC0E900129A605A60704791
:10120000E8100020E80F0020134E144DA6F52F77AC
:101210004FF08058DFF8489011E000F043FAF06892
:10122000C468201D00F0F4F9A868401EA860686832
:10123000401E686000F06EFA2046FFF795FF686870
:101240000028EAD138680128F9D9C9F80080BFF32D
:101250004F8FBFF36F8FF2E7A4530020FC0F0020E5
:1012600004ED00E00346009829B10260C0E90F31A7
:10127000012100F0D5BC0060F8E700002DE9F0473F
:10128000DDE909840D4682466FF00301206B01EB16
:1012900082010844089E20F007079946780705D088
:1012A00040F25D321AA120A0FFF7F4FB65B10020E7
:1012B0002218295C82F83410295C11B1401C1028D6
:1012C000F6D3002084F84300202E06D340F2923259
:1012D0000FA115A0FFF7DEFB1F26201DE66200F020
:1012E000C6F904F1180000F0C2F92461C6F120002B
:1012F0006462A0614A465146384600F043F92060D6
:10130000B8F1000F01D0C8F80040BDE8F087000038
:101310002E5C4672656552544F535C7372635C7405
:1013200061736B732E6300004572726F723A25739E
:101330002C25640D0A00000030B5114900E011466B
:101340000A688242FBD34B685C18844203D1406830
:1013500018444860084643681C18944209D1084C58
:10136000143C2468A24209D052681A4442600A68B8
:1013700012680260814200D0086030BD0460F9E765
:10138000E80F002010B5044600F08CF9A06B20B1E6
:10139000002400F0BFF9204610BD0124F9E7000049
:1013A0000548816B096821B1816BC9680968816250
:1013B00070474FF0FF31FAE7FC0F00200848406803
:1013C000401C04D0D12207A10FA0FFF763FB5020DF
:1013D00080F31188BFF34F8FBFF36F8FFEE70000DC
:1013E000F00F00202E5C4672656552544F535C70BE
:1013F0006F72745C525644535C41524D5F434D339F
:101400005C706F72742E63004572726F723A25734E
:101410002C25640D0A0000002DE9F041044600F07F
:1014200041F994F9455004F1240609E0606A48B195
:10143000304600F0C1FF08B100F07CFA6D1E6DB2BD
:10144000002DF3DC4FF0FF3684F8456000F062F9C0
:1014500000F028F994F9445004F1100709E02069DC
:1014600048B1384600F0A8FF08B100F063FA6D1EDD
:101470006DB2002DF3DC84F84460BDE8F04100F06B
:1014800049B900002DE9F0410446002600F0B6FA03
:101490002E4F386808B9FFF795FE002C49D004F0AC
:1014A0000700C0F11000C1438C4242D82518002D1E
:1014B0003FDD786885423CD82449143108460468E9
:1014C00001E0214604466068A84202D22068002854
:1014D000F7D13868B84684422BD00E68206808607F
:1014E00060680836401B10280ED96719780704D0A9
:1014F000DC2217A11FA0FFF7CDFA6068401B7860BF
:1015000038466560FFF718FF6168D8F80400424666
:10151000401AC8F80400D8F80830984200D2906009
:1015200041F00040606000202060D068401CC8F896
:101530000C0000F0C1FF700705D04FF48E7204A1BB
:101540000CA0FFF7A7FA3046BDE8F081D40F0020C9
:101550002E5C4672656552544F535C706F72745CBA
:101560004D656D4D616E675C686561705F342E63BB
:10157000000000004572726F723A25732C25640DCD
:101580000A00000010B5031F4FF080741C601B1F81
:1015900021F001011960191F024B0B60143940380A
:1015A0000A6010BDBD1300082DE9F04100F058FE9F
:1015B000154D0446E868A04224D22869201AFEF797
:1015C000BCFE07462868FEF7B8FE104E3146FEF70F
:1015D00044FE3946FEF773FEFEF7B4FE28816868C4
:1015E000FEF7ABFE3146FEF738FE3946FEF767FEE2
:1015F000FEF7A8FE6881002028602C61686004F571
:10160000FA74EC60BDE8F081CC53002000007A440D
:10161000D0E9013201699A60D0E901235A604A6831
:10162000824201D182684A60002202610868401E3D
:101630000860086870470000014880687047000033
:10164000FC0F0020034B036003F14C000860802076
:10165000106070473C09002000F108014FF0FF3294
:10166000C0E90112C16001610021016070470021E1
:101670000161704730B50C68621C02D000F10802AD
:1016800002E0026904E01A4653681D68A542FAD9CF
:1016900053684B6099608A60516008610168491C19
:1016A000016030BD502080F31188BFF34F8FBFF32E
:1016B0006F8F09494868401C486001280AD10748D3
:1016C000006810F0FF0F05D04FF4BB7204A10DA00D
:1016D000FFF7E0B970470000F00F002004ED00E0D4
:1016E0002E5C4672656552544F535C706F72745C29
:1016F000525644535C41524D5F434D335C706F72A0
:10170000742E63004572726F723A25732C25640D36
:101710000A00000010B5084C606828B940F27D123C
:1017200006A10FA0FFF7B6F96068401E606001D106
:1017300080F3118810BD0000F00F00202E5C46726F
:10174000656552544F535C706F72745C52564453CB
:101750005C41524D5F434D335C706F72742E630079
:101760004572726F723A25732C25640D0A000000D1
:1017700070B500282CD0A0F108046068002805DBB3
:1017800040F22F1213A11CA0FFF784F9206828B1A2
:101790004FF498720FA118A0FFF77CF96068002839
:1017A00016DA2168002913D120F00040606000F0B3
:1017B00025F9154D60686968084468602046FFF7A0
:1017C000BBFD2869401C2861BDE8704000F074BE74
:1017D00070BD00002E5C4672656552544F535C70BC
:1017E0006F72745C4D656D4D616E675C68656170AC
:1017F0005F342E63000000004572726F723A2573E9
:101800002C25640D0A000000D40F00204FF0E020CA
:1018100000210161816105494FF47A720968B1FBC9
:10182000F2F1491E416107210161704794100020C7
:1018300010B5FEF7CFFC104C10280CD300F1E020BF
:1018400090F8F0032178884205D240F2F1220BA1F2
:1018500013A0FFF71FF916480068A16800F4E060C4
:10186000884207D9BDE8104040F2013203A10CA024
:10187000FFF710B910BD0000F00F00202E5C46727B
:10188000656552544F535C706F72745C525644538A
:101890005C41524D5F434D335C706F72742E630038
:1018A0004572726F723A25732C25640D0A00000090
:1018B0000CED00E010B5040012D00E49496B29B1BF
:1018C00040F21C520CA112A0FFF7E4F800F096F8C9
:1018D00000212046FFF74CFB00F0EEFD002807D169
:1018E0000F494FF080500860BFF34F8FBFF36F8FE9
:1018F00010BD0000FC0F00202E5C4672656552543E
:101900004F535C7372635C7461736B732E6300007E
:101910004572726F723A25732C25640D0A0000001F
:1019200004ED00E002490A6A0260C968416070473C
:10193000FC0F002001490120C8617047FC0F002006
:1019400070B50D46040005D140F60E4207A10DA06A
:10195000FFF7A0F80F48016820461831FFF78AFE0C
:101960002846BDE870400121FFF702BB2E5C46729D
:10197000656552544F535C7372635C7461736B732F
:101980002E6300004572726F723A25732C25640D28
:101990000A000000FC0F002030B587B0002403943B
:1019A00005AA04A903A80494FFF74CFEDDE903018E
:1019B0000094CDE9011000230CA10E48059A00F017
:1019C000F3FB0D4DE86270B1502080F31188BFF336
:1019D0004F8FBFF36F8F4FF0FF30A8620120686117
:1019E000EC6000F053F8286B07B030BD49444C451B
:1019F0000000000009120008FC0F00200248416BA3
:101A0000491C416370470000FC0F002070B5134D66
:101A1000686B10B10120E86170BD0020E8612869A1
:101A20000F4EB0FA80F0C0F11F0000EB800456F8B2
:101A3000240028B940F6F6320AA110A0FFF72AF8D0
:101A400006EB840000F10802416849684160914258
:101A500001D149684160C868286070BDFC0F002052
:101A6000E85000202E5C4672656552544F535C73FB
:101A700072635C7461736B732E6300004572726FE6
:101A8000723A25732C25640D0A0000007CB52A4D9E
:101A900028780190FF20287028788DF800009DF8A4
:101AA00000009DF8001000F0F000884205D04FF4CF
:101AB000917222A12AA0FEF7EDFF9DF800002C4CA8
:101AC00000F0500020700720A06006E0401EA060DB
:101AD0009DF8000040008DF800009DF80000000611
:101AE000A068F3D403280ED04FF49B7213A11CA05E
:101AF000FEF7D0FFA068032805D040F23F120FA1E7
:101B000017A0FEF7C7FF207A000200F4E060A06093
:101B1000019828701748016841F47001016001685C
:101B200041F070410160FFF771FE00206060FEF738
:101B30001BFB00207CBD000000E400E02E5C467230
:101B4000656552544F535C706F72745C52564453C7
:101B50005C41524D5F434D335C706F72742E630075
:101B60004572726F723A25732C25640D0A000000CD
:101B7000F00F002020ED00E010B5502080F3118818
:101B8000BFF34F8FBFF36F8F00F070FB18B10449A4
:101B90004FF080500860002080F3118810BD0000D5
:101BA00004ED00E0F8B517460E4605004FF00004BE
:101BB0001AD0601EB0FBF5F0B04215D305FB06F05D
:101BC00010F1490F10D84830FFF75CFC040011D029
:101BD000002084F8460004F148023B46314628467E
:101BE0000094FFF73FFB05E04FF4F27202A108A05A
:101BF000FEF750FF2046F8BD2E5C467265655254D4
:101C00004F535C7372635C71756575652E6300007C
:101C10004572726F723A25732C25640D0A0000001C
:101C20002DE9F0410E4604004FF001052AD0E06B8B
:101C300070B3AF1EB7FBF0F1206C814228D3FFF7E1
:101C400031FDD4E90F20216802FB0011A1600021C1
:101C5000A163216861600A46D4E90F01401E00FBC0
:101C600001212046E16000F8447F477004F1100034
:101C7000C6B1FFF7F1FC04F12400FFF7EDFCFFF71C
:101C800049FD0CE04FF497720EA114A0FEF702FF7D
:101C9000002540F263120BA110A0FEF7FBFE2846C0
:101CA000BDE8F08121690029E9D000F085FB00281A
:101CB000E5D00E494FF080500860BFF34F8FBFF35F
:101CC0006F8FDCE72E5C4672656552544F535C7330
:101CD00072635C71756575652E6300004572726F85
:101CE000723A25732C25640D0A00000004ED00E013
:101CF0002DE9FF4F83B01F468B4604004FF00006CE
:101D000005D14FF453724DA152A0FEF7C3FEBBF1B3
:101D1000000F07D1206C28B140F24D3247A14DA0F1
:101D2000FEF7B8FE022F08D1E06B012805D040F283
:101D30004E3242A147A0FEF7ADFE00F083FA38B95B
:101D4000059828B140F251323CA142A0FEF7A2FE14
:101D50004FF0000A4FF08058DFF80891FFF7A2FC1F
:101D6000A06BE16B884205D3022F03D00598C8B160
:101D7000DEB11EE03A4659462046FFF7C8F9616ACF
:101D800019B104F1240000F017FB28B1C9F8008054
:101D9000BFF34F8FBFF36F8FFFF7BCFC012007B07D
:101DA000BDE8F08FFFF7B6FC21E06846FFF7BAFD0B
:101DB0000126FFF7AFFCFFF721FEFFF773FC94F954
:101DC0004400401C01D184F844A094F94500401C13
:101DD00001D184F845A0FFF79DFC05A9684600F0F5
:101DE00065F930B12046FFF717FB00F065FB0020D6
:101DF000D5E7FFF757FCA06BE16B884201D10125C5
:101E000000E00025FFF786FC95B104F1100005996C
:101E1000FFF796FD2046FFF7FFFA00F04DFB002884
:101E20009CD1C9F80080BFF34F8FBFF36F8F95E748
:101E30002046FFF7F1FA00F03FFB8FE72E5C467279
:101E4000656552544F535C7372635C71756575655B
:101E50002E6300004572726F723A25732C25640D53
:101E60000A00000004ED00E02DE9F0471F4690460F
:101E70008946040005D14FF484622DA132A0FEF7FB
:101E800009FEB9F1000F07D1206C28B140F22142C0
:101E900027A12DA0FEF7FEFD022F08D1E06B01283F
:101EA00005D040F2224222A127A0FEF7F3FDFFF762
:101EB000BFFC5020EFF3118680F31188BFF34F8FE2
:101EC000BFF36F8FA06BE16B884206D3022F04D063
:101ED000002086F31188BDE8F08794F94550A06B87
:101EE0003A4649462046FFF712F9681C06D0FFF72C
:101EF000A3FB854219D27F2D0ED013E0606AA0B1FA
:101F000004F1240000F058FA78B1B8F1000F0CD0B9
:101F10000121C8F8001008E040F2AB4204A10AA079
:101F2000FEF7B8FD6D1C84F845500120D1E7000094
:101F30002E5C4672656552544F535C7372635C71DC
:101F4000756575652E6300004572726F723A257370
:101F50002C25640D0A0000002DE9F74783B08A465E
:101F600004004FF0000605D140F26B5244A14AA094
:101F7000FEF790FDBAF1000F07D1206C28B140F2B6
:101F80006F523FA144A0FEF785FD00F05BF938B920
:101F9000059828B140F2745239A13FA0FEF77AFDAE
:101FA00000274FF08058DFF80091FFF77BFBA56B0F
:101FB000C5B151462046FFF797F86D1EA56320690D
:101FC00050B104F1100000F0F7F928B1C9F8008011
:101FD000BFF34F8FBFF36F8FFFF79CFB012006B05D
:101FE000BDE8F087059808B11EB106E0FFF792FB47
:101FF00027E06846FFF796FC0126FFF78BFBFFF70B
:10200000FDFCFFF74FFB94F94400401C01D184F81C
:10201000447094F94500401C01D184F84570FFF7E5
:1020200079FB05A9684600F041F8002820460AD04F
:10203000FFF7F2F900F040FA2046FFF7A3F9002875
:10204000B3D00020CBE7FFF79DF990B104F1240055
:102050000599FFF775FC2046FFF7DEF900F02CFA32
:102060000028A2D1C9F80080BFF34F8FBFF36F8F54
:102070009BE72046FFF7D0F900F01EFA95E7000035
:102080002E5C4672656552544F535C7372635C718B
:10209000756575652E6300004572726F723A25731F
:1020A0002C25640D0A00000004ED00E02DE9F0414C
:1020B0000C46050005D140F6EF4218A11DA0FEF721
:1020C000E9FC2CB94FF44F6214A11AA0FEF7E2FC10
:1020D000FFF7E8FA1B4EF1686B682268C81A571CB4
:1020E0000AD02F68D6F820C00026674506D08B425C
:1020F00004D8012526600BE0002509E0824205D9BD
:10210000101A20602846FFF70DFCF5E70125266030
:10211000FFF700FB2846BDE8F08100002E5C467208
:10212000656552544F535C7372635C7461736B7377
:102130002E6300004572726F723A25732C25640D70
:102140000A000000FC0F00202DE9FF5F8346DDE957
:102150000E87994616468A469000FFF793F90500C8
:102160001FD04C20FFF78EF9040017D04C21FEF74A
:1021700060F80020256384F84900CDE90240CDE9EC
:1021800000874B46324651465846FFF777F82046BF
:10219000FEF732FF012004B0BDE8F09F2846FFF7AC
:1021A000E7FA4FF0FF30F6E72DE9F04F85B098469B
:1021B000DDE90F540E9F91468A4683462DB940F2C1
:1021C0003F2216A11BA0FEF765FC2CB94FF410723C
:1021D00012A118A0FEF75EFC4C2000260090C4B1AE
:1021E000BDB14C212046FEF724F80220256384F877
:1021F00049000DF1040C04A800978CE851004346F7
:102200004A4651465846FFF739F82046FEF7F4FE95
:1022100000E00496049805B0BDE8F08F2E5C46728D
:10222000656552544F535C7372635C7461736B7376
:102230002E6300004572726F723A25732C25640D6F
:102240000A0000000548416919B1406B18B100202F
:10225000704701207047022070470000FC0F0020EB
:102260000148C06870470000FC0F00202DE9F041D4
:10227000454E0025706B28B1B069401CB0612846FE
:10228000BDE8F081F468641CF46011D1B06B0068A3
:1022900028B140F6B7223DA142A0FEF7FBFBB06B90
:1022A000F16BB163F063306A401C3062FFF778F87D
:1022B000B06ADFF800E184420BD34FF0000CB06B42
:1022C0000068A0B1B06BC068C1684868844211D290
:1022D000B0623068C06A00EB80005EF82000012820
:1022E00000D90125F0690028C9D00125C7E74FF0C2
:1022F000FF30EDE7D1E9023248699A60D1E9022363
:102300005A6043680A1D934201D1CB684360C1F80B
:1023100014C003685B1E0360886A88B1D1E907377F
:102320009F60D1E907377B60476801F118039F423E
:1023300001D10B6A4360C1F828C003685B1E0360CB
:10234000C86A0123376983403B43336100EB800057
:102350000EEB8000406888608368CB6083685A60B9
:102360008260C86A00EB80000EEB80024A615EF872
:102370002020521C4EF82020C86A3168C96A884261
:102380009DD901259BE70000FC0F00202E5C4672C2
:10239000656552544F535C7372635C7461736B7305
:1023A0002E6300004572726F723A25732C25640DFE
:1023B0000A000000E850002070B5C068C4682CB95D
:1023C00040F674422FA135A0FEF764FBD4E9072143
:1023D000A06A9160D4E907125160426804F11801C3
:1023E0008A4201D1226A42600025A5620268521E1B
:1023F00002602E4A506B012398B12D4D6868E06150
:1024000086682662866871608160A5622868401CC3
:102410002860E06A1168C96A884231D90120D36115
:1024200070BDD4E902616069B160D4E902167160DF
:102430004668211D8E4201D1E668466065610568E7
:102440006D1E0560E06A166903FA00F535431561F3
:10245000184D00EB800005EB80004068A0608668A6
:10246000E660866871608160E06A00EB800005EBE1
:102470008001616155F82010491C45F82010C8E71B
:10248000002070BD2E5C4672656552544F535C73DC
:1024900072635C7461736B732E6300004572726FBC
:1024A000723A25732C25640D0A000000FC0F0020F1
:1024B00090530020E85000202DE9F047444D0024BF
:1024C000A146686B28B940F6850242A147A0FEF7F5
:1024D000E1FAFFF7E7F8686B401E6863686B002855
:1024E00070D1A868DFF814C100264FF00108E8BBDE
:1024F00068E0DCF80C00C468D4E90721A06A9160A8
:10250000D4E907125160426804F118018A4201D1EE
:10251000216A4160A6620168491E0160D4E9022176
:1025200060699160D4E9021251604268211D8A42BB
:1025300001D1E268426066610268521E0260E06A90
:102540002F69434608FA00F23A432A612C4A00EB0D
:10255000800002EB80004068A0608768E7608768C1
:1025600079608160E06A00EB800000E00DE002EB42
:102570008001616152F82010491C42F82010E06A85
:102580002968C96A884200D3EB61DCF800000028A2
:10259000AFD10CB1FEF704FFAC693CB14746FFF781
:1025A00065FE00B1EF61641EF9D1AE61E86948B122
:1025B00014494FF080504FF001090860BFF34F8F6E
:1025C000BFF36F8FFFF7A6F84846BDE8F08700001D
:1025D000FC0F00202E5C4672656552544F535C73AD
:1025E00072635C7461736B732E6300004572726F6B
:1025F000723A25732C25640D0A00000090530020C8
:10260000E850002004ED00E06372747000000000E8
:1026100072785261746500007478526174650000CC
:1026200073746F705F637274700000006372747013
:10263000737276006563686F44656C6179000000B1
:1026400073746F705F637274707372760000000051
:1026500081000000082600080000000002000000C1
:1026600010260008D453002002000000182600089D
:10267000D653002080000000202600080000000043
:10268000A026000800000020E81000002C0400082C
:102690000C270008E810002098470000C40A000832
:1026A00001FF01FF01FF01FF01FF01FF01FF01FF2A
:1026B00001FF01FF01FF01FF01FF01FF01FF01FF1A
:1026C000411AAA01013402131F1348104220136952
:1026D0000F6A08040118138F0A1B0859041A3904D9
:1026E000813C0204060C2D010203040415060708B0
:1026F0000984A24A047914313281CB2C266029192D
:0C2700001A34145A5E88413280DA4028F6
:0400000508000131BD
:00000001FF
