S3150800000098470020DD010008A30300083D03000807
S31508000010A103000899020008510800080000000022
S315080000200000000000000000000000004501000874
S315080000309B0200080000000089010008110500085D
S31508000040F7010008F7010008F7010008F7010008A2
S31508000050F7010008F7010008F7010008F701000892
S31508000060F7010008F7010008F7010008F701000882
S31508000070F7010008F7010008F7010008F701000872
S31508000080F7010008F7010008F7010008F701000862
S31508000090F7010008F7010008F7010008F701000852
S315080000A0F7010008F7010008F7010008F701000842
S315080000B0F7010008F7010008F7010008F701000832
S315080000C0F7010008F7010008F7010008F701000822
S315080000D0F701000839060008F7010008F7010008CB
S315080000E0F7010008F7010008F7010008F701000802
S315080000F0F7010008F7010008F7010008F7010008F2
S31508000100F7010008F7010008F7010008F7010008E1
S31508000110F7010008F7010008F7010008F7010008D1
S31508000120F7010008F7010008F7010008F7010008C1
S31508000130DFF80CD000F09EF800480047290B0008AD
S3150800014098470020224B19680868B0E8F00F80F33A
S315080001500988BFF36F8F4FF0000080F311884EF0C7
S315080001600D0E70470000000006480068006880F31E
S31508000170088862B661B6BFF34F8FBFF36F8F00DF93
S3150800018000BF00BF08ED00E0EFF30980BFF36F8FF3
S315080001900F4B1A6820E9F00F106008B54FF05000B1
S315080001A080F31188BFF34F8FBFF36F8F01F086F985
S315080001B04FF0000080F31188BDE808401968086808
S315080001C0B0E8F00F80F30988BFF36F8F704700BF60
S315080001D048000020EFF30580704700000648804776
S315080001E006480047FEE7FEE7FEE7FEE7FEE7FEE70E
S315080001F0FEE7FEE7FEE7FEE72505000831010008F1
S3150800020040EA01039B0703D009E008C9121F08C08A
S31508000210042AFAD203E011F8013B00F8013B521E0A
S31508000220F9D27047D2B201E000F8012B491EFBD281
S3150800023070470022F6E710B513460A4604461946E3
S31508000240FFF7F0FF204610BD30B50B4601460020EB
S315080002502022012409E021FA02F59D4205D303FA7A
S3150800026002F5491B04FA02F52844151EA2F10102FB
S31508000270F1DC30BD064C074D06E0E06840F00103AE
S3150800028094E8070098471034AC42F6D3FFF754FFBA
S315080002905820000878200008FEE77047F0B5CC78AB
S315080002A0002204F00F03E40601D58C7823430C786A
S315080002B04FF00F0C14F0FF0F4FF0010E1BD005681E
S315080002C00E880EFA02F42640A64210D196000CFAC1
S315080002D006F725EA070703FA06F5CE783D43282EE2
S315080002E002D0482E02D002E0446100E00461521CAC
S315080002F0082AE5D305600A88FF2A1CD94468002223
S3150800030002F108060EFA06F50E882E40AE420ED108
S3150800031096000CFA06F7BC4303FA06F7CE783C4378
S31508000320282E00D14561CE78482E00D10561521C91
S31508000330082AE5D34460F0BD01617047FEE7000076
S3150800034038B50121082000F02DF82020ADF800006E
S3150800035010208DF803000320104C8DF80200694622
S315080003602046FFF79BFF0121ADF80010694620469D
S31508000370FFF794FF0221ADF8001069462046FFF703
S315080003808DFF20212046FFF7D7FF01212046FFF7E2
S31508000390D3FF02212046FFF7CFFF38BD000C0140EE
S315080003A0FEE77047044A0029916901D0014300E03D
S315080003B081439161704700000010024030B5204A21
S315080003C05168204B11F00C0103D0042901D00829EB
S315080003D001D0036012E05168536801F470114FF0C0
S315080003E0020413F4803F04EB914102D053689B0347
S315080003F001D5154B00E0134B5943016051680F2393
S3150800040003EA1111114B5C5C0168E14041605468D4
S31508000410072505EA14241C5D21FA04F4846054684F
S3150800042005EAD4241B5DD940C1605268032303EA58
S315080004309232064B1B1F9A5CB1FBF2F1016130BD8B
S315080004400010024000127A0000093D008C000020CE
S315080004500CB50022264800920192016841F48031C9
S3150800046001604FF4A063016801F40031019100991D
S31508000470491C0091019911B900999942F3D1016873
S31508000480890333D5012101911A490A6842F01002FD
S315080004900A600A6822F003020A600A6842F0020249
S315080004A00A604168416041684160416841F4806181
S315080004B04160416821F47C114160416841F4E811CA
S315080004C04160016841F08071016001688901FCD5CD
S315080004D0416821F003014160416841F00201416031
S315080004E04168C1F381010229FAD10CBD01920CBD04
S315080004F0001002400020024001B5044800231A46B5
S315080005006946806801F008FA08BD0000000000206E
S3150800051010B501F09FFB012803D0BDE8104001F09B
S3150800052083B810BD0F4810B5016841F0010101609C
S3150800053041680D4A1140416001680C4A114001604A
S31508000540016821F480210160416821F4FE014160BF
S315080005504FF41F018160FFF77BFF05494FF00060EC
S31508000560086010BD001002400000FFF8FFFFF6FE0D
S3150800057008ED00E08AB01F4E00244FF0FF386F46A2
S31508000580424608A9B06801F03FFAFCB1012C23D015
S31508000590022C27D0032CF3D179199DF820008870F6
S315080005A09DF800006D1CA842EAD19DF80100BB1C0D
S315080005B0020900F0030110A000F0A8F90023642244
S315080005C06946706801F0ECF80024D9E79DF8200028
S315080005D05528D5D10124D3E79DF820008DF80000D1
S315080005E00224CDE79DF8200000258DF8010003249C
S315080005F0C6E70000000000206265666F726520731A
S31508000600656E6420476574205061636B65743A2093
S315080006106368616E6E656C203D2025642C20706FC2
S315080006207274203D2025642C2064617461203D206D
S3150800063025730D0A0000000010B5084C40F225513C
S31508000640204600F070F8002807D0204600F0F8F899
S31508000650BDE81040C0B2FFF74FBF10BD00380140DB
S315080006600029818902D041F4005101E021F40051AA
S315080006708181704710B586B001210420FFF792FEEC
S3150800068001218803FFF78EFE4FF40070ADF81000C5
S3150800069018208DF8130003201C4C8DF8120004A9AD
S315080006A02046FFF7FBFD2115ADF8101004218DF843
S315080006B0131004A92046FFF7F1FD4FF4E13000902E
S315080006C00020ADF80400ADF80600ADF80800ADF856
S315080006D00C000C200E4CADF80A006946204600F0C6
S315080006E059F801212046FFF7BBFF012240F22551A8
S315080006F0204600F037F80749502081F800040549DC
S3150800070020202139C1F8000106B010BD00080140BB
S315080007100038014025E000E00246002012880A421F
S3150800072000D00120704770B501F01F05012600248E
S31508000730C1F3421306FA05F2012B0FD0022B0FD094
S31508000740838A4FEA11210088134206FA01F600EA65
S31508000750060001D000B10124204670BD8389F0E768
S31508000760038AEEE710B5C1F3421301F01F04012115
S31508000770A140012B07D0022B07D01430002A0268AB
S3150800078005D00A4304E00C30F8E71030F6E78A4350
S31508000790026010BD30B50446008A85B00D464CF699
S315080007A0FF710840E98801432182A0894EF6F311BA
S315080007B00840A9882A8911436A8902431143A181FD
S315080007C0A08A4FF6FF410840A9890143A1826846DD
S315080007D0FFF7F4FD1948844201D1039800E0029816
S315080007E0A189090400EBC00101EB0010296801D5B5
S315080007F0490000E08900B0FBF1F06422B0FBF2F199
S3150800080009010B096FF018056B4300EB8300A389F8
S315080008101D044FF0320306D503EBC000B0FBF2F01F
S3150800082000F0070005E003EB0010B0FBF2F000F063
S315080008300F000843208105B030BD00000038014094
S315080008408088C0F308007047C1F3080181807047AB
S31508000850FEE700001CB500220121402000F0FAFE48
S31508000860094C00222021A060052000F0F3FE6060FC
S3150800087021460A20CDE900010023C82203A1064823
S3150800088001F0BAF91CBD0000000000205061727327
S3150800089065725461736B00007505000870B50546EE
S315080008A001460A486422406801F0AEF8012802D0E1
S315080008B04FF0FF3070BD6C78AB1C220904F00301C1
S315080008C003A000F023F8002070BD000000000020FF
S315080008D0476574205061636B65743A206368616E7E
S315080008E06E656C203D2025642C20706F7274203D47
S315080008F02025642C2064617461203D2025730D0A2F
S315080009000000000000207047002070470FB4054B18
S3150800091010B503A9044A029800F018F810BC5DF84F
S3150800092014FB0000050B0008B000002002E008C810
S31508000930121F08C1002AFAD170477047002001E04B
S3150800094001C1121F002AFBD1704700002DE9FF4F95
S315080009508BB09A460F460546002606E025280BD09A
S3150800096052460D9990476D1C761C28780028F5D1BB
S315080009700FB03046BDE8F08F0024A046012260493A
S3150800098000E0044315F8013F203B02FA03F0084251
S31508000990F7D128782E2817D115F8010F44F004044A
S315080009A02A280ED06FF02F022878A0F130010929E5
S315080009B00AD808EB880102EB410100EB01086D1C1F
S315080009C0F2E757F8048B6D1C287869283ED006DCB8
S315080009D00028CDD063280BD0642804D136E07328CC
S315080009E010D075284BD052460D999047761C85E055
S315080009F017F8040B8DF8000000208DF80100E94671
S31508000A00012003E057F8049B4FF0FF3061074FF0D1
S31508000A10000401D40AE0641C44450DDA8442FADB7A
S31508000A2019F804100029F6D106E0641C8442FCDBA0
S31508000A3019F804100029F8D1264404E019F8010B26
S31508000A4052460D999047641EF8D257E001CF4FF0F1
S31508000A500A0B002802DA40422D2102E0210504D5BE
S31508000A602B218DF82410012103E0E10705D0202170
S31508000A70F7E70DF1200908910CE00021F9E701CF0D
S31508000A804FF00A0BF9E75946FFF7DEFB01F1300292
S31508000A9009F8012D0028F6D1ADEB090000F1200B6D
S31508000AA0600701D44FF00108D84502DDA8EB0B001A
S31508000AB000E000208046002406E009A85246005DB2
S31508000AC00D999047641C761C08988442F5DB04E06F
S31508000AD0302052460D999047761CB8F10001A8F1CE
S31508000AE00108F5DC05E019F8010B52460D99904707
S31508000AF0761CBBF10001ABF1010BF4DC6D1C34E78D
S31508000B000928010070B5074D0446C1B22846FFF70B
S31508000B109BFE80212846FFF7FFFD0028F9D02046D6
S31508000B2070BD000000380140FFF70AFCFFF792FE8F
S31508000B30FFF7A0FD0248FFF7E9FE00F071FCFEE7AB
S31508000B400C2000082DE9F0411E4D0F460446EE68BC
S31508000B502868001D00F0E2FA38B9286890F82C10C9
S31508000B6001208840296981432961601C15D1A7B1F4
S31508000B7015492A68486890602B688268DA602A688E
S31508000B808368121D5A602A68121D826028684161AE
S31508000B900868401C0860BDE8F08128683444B442FF
S31508000BA04460296805D2E86BBDE8F041091D00F0EC
S31508000BB0DDBAA86B091D00F0D9FAA86A8442EAD200
S31508000BC0AC62E8E748000020844300202DE9F041A4
S31508000BD0044600F0E3FA354EB068401CB060306851
S31508000BE0334F10B1706930B32BE03460B068012818
S31508000BF027D1002505EB850007EB800000F0A8FA51
S31508000C006D1C202DF6D32B4800F0A2FA2948143083
S31508000C1000F09EFA2748283000F09AFA25483C301A
S31508000C2000F096FA2348503000F092FA2148B06353
S31508000C301430F06305E03068E16AC06A884200D87B
S31508000C403460706A0121401C7062E06A3269814032
S31508000C501143316100EB800007EB80004068A0601B
S31508000C608168E1608268211D51608160E06A00EB5D
S31508000C70800007EB8001616157F82010491C47F88E
S31508000C80201000F0C3FA706900280CD03068E16AB9
S31508000C90C06A884207D208494FF080500860BFF3FF
S31508000CA04F8FBFF36F8FBDE8F0810000480000202A
S31508000CB0B44000203443002004ED00E030B4026C58
S31508000CC00B46002A0BD0C1681144C1608468A14252
S31508000CD001D30168C16030BC1846FFF791BA30BC31
S31508000CE070472DE9F041856B164604460027026CCD
S31508000CF0FAB17EB1E068FFF783FAE168206C091A59
S31508000D00E1602268914202D2A168081AE060022EC8
S31508000D100DD00EE06068FFF773FA216C606808442E
S31508000D206060A168884204D32068606001E005B16C
S31508000D306D1E6D1CA5633846BDE8F08110B50446E6
S31508000D40006B00F091FA2046BDE8104000F08CBA1E
S31508000D500E484FF48041420706D0C01D0B4920F0CB
S31508000D600700411AC1F58041094B00220144C3E935
S31508000D7000020839143B21F0070119604A600A602D
S31508000D800A1AC0E900129A605A607047B400002037
S31508000D9034000020134E144DA6F52F774FF08058D7
S31508000DA0DFF8489011E000F0F9F9F068C468201DF2
S31508000DB000F0B4F9A868401EA8606868401E68601C
S31508000DC000F024FA2046FFF7B9FF68680028EAD140
S31508000DD038680128F9D9C9F80080BFF34F8FBFF3E7
S31508000DE06F8FF2E7704300204800002004ED00E012
S31508000DF02DE9F047DDE909840D4682466FF00301C7
S31508000E00206B01EB82010844089E20F007079946EB
S31508000E10780705D040F25D321AA120A0FFF776FDCB
S31508000E2065B100202218295C82F83410295C11B1BA
S31508000E30401C1028F6D3002084F84300202E06D341
S31508000E4040F292320FA115A0FFF760FD1F26201D64
S31508000E50E66200F088F904F1180000F084F92461CC
S31508000E60C6F120006462A0614A465146384600F041
S31508000E7043F92060B8F1000F01D0C8F80040BDE87A
S31508000E80F08700002E5C4672656552544F535C73BA
S31508000E9072635C7461736B732E6300004572726FC4
S31508000EA0723A25732C25640D0A00000030B51149E5
S31508000EB000E011460A688242FBD34B685C188442FC
S31508000EC003D1406818444860084643681C18944291
S31508000ED009D1084C143C2468A24209D052681A4425
S31508000EE042600A6812680260814200D0086030BD1C
S31508000EF00460F9E73400002010B5044600F04EF906
S31508000F00A06B20B1002400F081F9204610BD012411
S31508000F10F9E700000548816B096821B1816BC9684A
S31508000F200968816270474FF0FF31FAE748000020F0
S31508000F3008484068401C04D0D12207A10FA0FFF73B
S31508000F40E5FC502080F31188BFF34F8FBFF36F8FF6
S31508000F50FEE700003C0000202E5C46726565525490
S31508000F604F535C706F72745C525644535C41524DD9
S31508000F705F434D335C706F72742E63004572726FF7
S31508000F80723A25732C25640D0A0000002DE9F041FC
S31508000F90044600F003F994F9455004F1240609E0E3
S31508000FA0606A48B1304600F009FF08B100F006FA59
S31508000FB06D1E6DB2002DF3DC4FF0FF3684F84560E8
S31508000FC000F024F900F0EAF894F9445004F1100707
S31508000FD009E0206948B1384600F0F0FE08B100F093
S31508000FE0EDF96D1E6DB2002DF3DC84F84460BDE8A2
S31508000FF0F04100F00BB900002DE9F0410446002647
S3150800100000F054FA2E4F386808B9FFF7A1FE002CF5
S3150800101049D004F00700C0F11000C1438C4242D801
S315080010202518002D3FDD786885423CD824491431BF
S315080010300846046801E0214604466068A84202D2D0
S3150800104020680028F7D13868B84684422BD00E6845
S315080010502068086060680836401B10280ED9671992
S31508001060780704D0DC2217A11FA0FFF74FFC6068A1
S31508001070401B786038466560FFF718FF6168D8F846
S3150800108004004246401AC8F80400D8F808309842C6
S3150800109000D2906041F00040606000202060D06877
S315080010A0401CC8F80C0000F009FF700705D04FF483
S315080010B08E7204A10CA0FFF729FC3046BDE8F0812A
S315080010C0200000202E5C4672656552544F535C70B2
S315080010D06F72745C4D656D4D616E675C68656170B5
S315080010E05F342E63000000004572726F723A2573F2
S315080010F02C25640D0A00000010B5031F4FF08074FC
S315080011001C601B1F21F001011960191F024B0B609F
S31508001110143940380A6010BD310F0008D0E9013291
S3150800112001699A60D0E901235A604A68824201D16E
S3150800113082684A60002202610868401E08600868E2
S31508001140704700000148806870470000480000208A
S3150800115000F108014FF0FF32C0E90112C1600161D8
S3150800116000210160704700210161704730B50C68A5
S31508001170621C02D000F1080202E0026904E01A4685
S3150800118053681D68A542FAD953684B6099608A600E
S31508001190516008610168491C016030BD502080F328
S315080011A01188BFF34F8FBFF36F8F09494868401CFA
S315080011B0486001280AD10748006810F0FF0F05D0DB
S315080011C04FF4BB7204A10DA0FFF7A0BB7047000047
S315080011D03C00002004ED00E02E5C46726565525422
S315080011E04F535C706F72745C525644535C41524D57
S315080011F05F434D335C706F72742E63004572726F75
S31508001200723A25732C25640D0A00000010B5084CA7
S31508001210606828B940F27D1206A10FA0FFF776FB99
S315080012206068401E606001D180F3118810BD00001F
S315080012303C0000202E5C4672656552544F535C7024
S315080012406F72745C525644535C41524D5F434D3342
S315080012505C706F72742E63004572726F723A2573F2
S315080012602C25640D0A00000070B500282CD0A0F1CA
S3150800127008046068002805DB40F22F1213A11CA0A1
S31508001280FFF744FB206828B14FF498720FA118A005
S31508001290FFF73CFB6068002816DA2168002913D19D
S315080012A020F00040606000F001F9154D606869683B
S315080012B0084468602046FFF7F9FD2869401C286144
S315080012C0BDE8704000F0FABD70BD00002E5C4672A5
S315080012D0656552544F535C706F72745C4D656D4D05
S315080012E0616E675C686561705F342E63000000009C
S315080012F04572726F723A25732C25640D0A00000038
S31508001300200000204FF0E02000210161816105499D
S315080013104FF47A720968B1FBF2F1491E416107215F
S31508001320016170479C00002010B5FEF753FF104C72
S3150800133010280CD300F1E02090F8F00321788842B9
S3150800134005D240F2F1220BA113A0FFF7DFFA1648E7
S315080013500068A16800F4E060884207D9BDE810403B
S3150800136040F2013203A10CA0FFF7D0BA10BD00006D
S315080013703C0000202E5C4672656552544F535C70E3
S315080013806F72745C525644535C41524D5F434D3301
S315080013905C706F72742E63004572726F723A2573B1
S315080013A02C25640D0A0000000CED00E002490A6ACB
S315080013B00260C96841607047480000200149012061
S315080013C0C86170474800002070B50D46040005D175
S315080013D040F60E4207A10DA0FFF798FA0F480168DC
S315080013E020461831FFF7C2FE2846BDE870400121A5
S315080013F0FFF7A8BB2E5C4672656552544F535C7363
S3150800140072635C7461736B732E6300004572726F4E
S31508001410723A25732C25640D0A0000004800002046
S315080014207CB514480025CDE900502B46802212A130
S31508001430134800F0E1FB0F4C2C3C012802D0401C5D
S3150800144010D015E0502080F31188BFF34F8FBFF3FB
S315080014506F8F4FF0FF30A06201206061E56000F0F9
S315080014606DF805E040F6120206A10CA0FFF74EFA49
S31508001470206B7CBD7400002049444C4500000000E8
S31508001480950D00082E5C4672656552544F535C7381
S3150800149072635C7461736B732E6300004572726FBE
S315080014A0723A25732C25640D0A0000000248416B28
S315080014B0491C4163704700004800002070B5134D71
S315080014C0686B10B10120E86170BD0020E8612869E9
S315080014D00F4EB0FA80F0C0F11F0000EB800456F8FA
S315080014E0240028B940F6F6320AA110A0FFF70EFA32
S315080014F006EB840000F108024168496841609142A0
S3150800150001D149684160C868286070BD480000205C
S31508001510B44000202E5C4672656552544F535C7386
S3150800152072635C7461736B732E6300004572726F2D
S31508001530723A25732C25640D0A0000007CB52A4DE5
S3150800154028780190FF20287028788DF800009DF8EB
S3150800155000009DF8001000F0F000884205D04FF416
S31508001560917222A12AA0FFF7D1F99DF800002C4C10
S3150800157000F0500020700720A06006E0401EA06022
S315080015809DF8000040008DF800009DF80000000658
S31508001590A068F3D403280ED04FF49B7213A11CA0A5
S315080015A0FFF7B4F9A068032805D040F23F120FA14F
S315080015B017A0FFF7ABF9207A000200F4E060A060FC
S315080015C0019828701748016841F4700101600168A4
S315080015D041F070410160FFF795FE00206060FEF75C
S315080015E0C3FD00207CBD000000E400E02E5C4672CE
S315080015F0656552544F535C706F72745C525644530F
S315080016005C41524D5F434D335C706F72742E6300BC
S315080016104572726F723A25732C25640D0A00000014
S315080016203C00002020ED00E010B5502080F3118822
S31508001630BFF34F8FBFF36F8F00F01AFB18B1044941
S315080016404FF080500860002080F3118810BD00001C
S3150800165004ED00E070B50E4605004FF000041BD0FF
S31508001660601EB0FBF5F0B04216D305FB06F010F18C
S31508001670490F11D84830FFF7BFFC040012D004F117
S315080016804801204636B10160C0E90F56012100F035
S315080016901FF807E00060F7E74FF4F27202A108A00E
S315080016A0FFF734F9204670BD2E5C467265655254C4
S315080016B04F535C7372635C71756575652E630000C4
S315080016C04572726F723A25732C25640D0A00000064
S315080016D02DE9F0410E4604004FF001052AD0E06BD3
S315080016E070B3AF1EB7FBF0F1206C814228D3FFF729
S315080016F055FDD4E90F20216802FB0011A1600021E5
S31508001700A163216861600A46D4E90F01401E00FB07
S3150800171001212046E16000F8447F477004F110007B
S31508001720C6B1FFF715FD04F12400FFF711FDFFF719
S315080017306DFD0CE04FF497720EA114A0FFF7E6F8C2
S31508001740002540F263120BA110A0FFF7DFF8284628
S31508001750BDE8F08121690029E9D000F02FFB0028B7
S31508001760E5D00E494FF080500860BFF34F8FBFF3A6
S315080017706F8FDCE72E5C4672656552544F535C7377
S3150800178072635C71756575652E6300004572726FCC
S31508001790723A25732C25640D0A00000004ED00E05A
S315080017A02DE9FF4F83B01F468B4604004FF0000615
S315080017B005D14FF453724DA152A0FFF7A7F8BBF11C
S315080017C0000F07D1206C28B140F24D3247A14DA039
S315080017D0FFF79CF8022F08D1E06B012805D040F2EC
S315080017E04E3242A147A0FFF791F800F033FA38B914
S315080017F0059828B140F251323CA142A0FFF786F87D
S315080018004FF0000A4FF08058DFF80891FFF7C6FC42
S31508001810A06BE16B884205D3022F03D00598C8B1A7
S31508001820DEB11EE03A4659462046FFF75AFA616A83
S3150800183019B104F1240000F0C1FA28B1C9F80080F2
S31508001840BFF34F8FBFF36F8FFFF7E0FC012007B0A0
S31508001850BDE8F08FFFF7DAFC21E06846FFF7A6FD42
S315080018600126FFF7D3FCFFF721FEFFF797FC94F953
S315080018704400401C01D184F844A094F94500401C5A
S3150800188001D184F845A0FFF7C1FC05A9684600F018
S3150800189065F930B12046FFF779FB00F00FFB002011
S315080018A0D5E7FFF77BFCA06BE16B884201D10125E8
S315080018B000E00025FFF7AAFC95B104F11000059990
S315080018C0FFF782FD2046FFF761FB00F0F7FA0028D4
S315080018D09CD1C9F80080BFF34F8FBFF36F8F95E790
S315080018E02046FFF753FB00F0E9FA8FE72E5C4672B5
S315080018F0656552544F535C7372635C7175657565A3
S315080019002E6300004572726F723A25732C25640D9A
S315080019100A00000004ED00E02DE9F0471F46904656
S315080019208946040005D14FF484622DA132A0FEF742
S31508001930EDFFB9F1000F07D1206C28B140F2214222
S3150800194027A12DA0FEF7E2FF022F08D1E06B0128A0
S3150800195005D040F2224222A127A0FEF7D7FFFFF7C3
S31508001960E3FC5020EFF3118680F31188BFF34F8F05
S31508001970BFF36F8FA06BE16B884206D3022F04D0AA
S31508001980002086F31188BDE8F08794F94550A06BCE
S315080019903A4649462046FFF7A4F9681C06D0FFF7E1
S315080019A0D1FB854219D27F2D0ED013E0606AA0B113
S315080019B004F1240000F002FA78B1B8F1000F0CD057
S315080019C00121C8F8001008E040F2AB4204A10AA0C1
S315080019D0FEF79CFF6D1C84F845500120D1E70000F6
S315080019E02E5C4672656552544F535C7372635C7124
S315080019F0756575652E6300004572726F723A2573B8
S31508001A002C25640D0A0000002DE9F74783B08A46A5
S31508001A1004004FF0000605D140F26B5244A14AA0DB
S31508001A20FEF774FFBAF1000F07D1206C28B140F217
S31508001A306F523FA144A0FEF769FF00F00BF938B9D1
S31508001A40059828B140F2745239A13FA0FEF75EFF0F
S31508001A5000274FF08058DFF80091FFF79FFBA56B32
S31508001A60C5B151462046FFF729F96D1EA5632069C1
S31508001A7050B104F1100000F0A1F928B1C9F80080AE
S31508001A80BFF34F8FBFF36F8FFFF7C0FB012006B080
S31508001A90BDE8F087059808B11EB106E0FFF7B6FB6A
S31508001AA027E06846FFF782FC0126FFF7AFFBFFF742
S31508001AB0FDFCFFF773FB94F94400401C01D184F840
S31508001AC0447094F94500401C01D184F84570FFF72D
S31508001AD09DFB05A9684600F041F8002820460AD073
S31508001AE0FFF754FA00F0EAF92046FFF705FA00284E
S31508001AF0B3D00020CBE7FFF7FFF990B104F124003B
S31508001B000599FFF761FC2046FFF740FA00F0D6F981
S31508001B100028A2D1C9F80080BFF34F8FBFF36F8F9B
S31508001B209BE72046FFF732FA00F0C8F995E7000070
S31508001B302E5C4672656552544F535C7372635C71D2
S31508001B40756575652E6300004572726F723A257366
S31508001B502C25640D0A00000004ED00E02DE9F04193
S31508001B600C46050005D140F6EF4218A11DA0FEF768
S31508001B70CDFE2CB94FF44F6214A11AA0FEF7C6FE8B
S31508001B80FFF70CFB1B4EF1686B682268C81A571CD6
S31508001B900AD02F68D6F820C00026674506D08B42A3
S31508001BA004D8012526600BE0002509E0824205D904
S31508001BB0101A20602846FFF7F9FBF5E7012526608D
S31508001BC0FFF724FB2846BDE8F08100002E5C46722C
S31508001BD0656552544F535C7372635C7461736B73BF
S31508001BE02E6300004572726F723A25732C25640DB8
S31508001BF00A000000480000202DE9FF5F8346DDE962
S31508001C000E87994616468A469000FFF7F5F90500AD
S31508001C101DD04C20FFF7F0F9040015D04C21FEF733
S31508001C2008FB25630021CDE90241CDE900874B4633
S31508001C30324651465846FFF7DBF82046FEF7C6FF00
S31508001C40012004B0BDE8F09F2846FFF70DFB4FF0D2
S31508001C50FF30F6E70548416919B1406B18B1002015
S31508001C607047012070470220704700004800002096
S31508001C702DE9F041454E0025706B28B1B069401C2E
S31508001C80B0612846BDE8F081F468641CF46011D19F
S31508001C90B06B006828B140F6B7223DA142A0FEF716
S31508001CA035FEB06BF16BB163F063306A401C30628D
S31508001CB0FFF730F9B06ADFF800E184420BD34FF042
S31508001CC0000CB06B0068A0B1B06BC068C16848680A
S31508001CD0844211D2B0623068C06A00EB80005EF8B8
S31508001CE02000012800D90125F0690028C9D001255E
S31508001CF0C7E74FF0FF30EDE7D1E9023248699A604D
S31508001D00D1E902235A6043680A1D934201D1CB6880
S31508001D104360C1F814C003685B1E0360886A88B113
S31508001D20D1E907379F60D1E907377B60476801F13A
S31508001D3018039F4201D10B6A4360C1F828C00368A3
S31508001D405B1E0360C86A0123376983403B433361DE
S31508001D5000EB80000EEB8000406888608368CB60EB
S31508001D6083685A608260C86A00EB80000EEB8002C6
S31508001D704A615EF82020521C4EF82020C86A316855
S31508001D80C96A88429DD901259BE7000048000020C2
S31508001D902E5C4672656552544F535C7372635C746D
S31508001DA061736B732E6300004572726F723A257306
S31508001DB02C25640D0A000000B440002070B5C068E8
S31508001DC0C4682CB940F674422FA135A0FEF79EFDD3
S31508001DD0D4E90721A06A9160D4E9071251604268E4
S31508001DE004F118018A4201D1226A42600025A562DF
S31508001DF00268521E02602E4A506B012398B12D4D7F
S31508001E006868E06186682662866871608160A56296
S31508001E102868401C2860E06A1168C96A884231D976
S31508001E200120D36170BDD4E902616069B160D4E96B
S31508001E30021671604668211D8E4201D1E668466029
S31508001E40656105686D1E0560E06A166903FA00F5A6
S31508001E5035431561184D00EB800005EB800040689E
S31508001E60A0608668E660866871608160E06A00EB5B
S31508001E70800005EB8001616155F82010491C45F882
S31508001E802010C8E7002070BD2E5C46726565525466
S31508001E904F535C7372635C7461736B732E630000DB
S31508001EA04572726F723A25732C25640D0A0000007C
S31508001EB0480000205C430020B44000202DE9F0478C
S31508001EC0444D0024A146686B28B940F6850242A114
S31508001ED047A0FEF71BFDFFF761F9686B401E6863B4
S31508001EE0686B002870D1A868DFF814C100264FF087
S31508001EF00108E8BB68E0DCF80C00C468D4E90721EF
S31508001F00A06A9160D4E907125160426804F1180189
S31508001F108A4201D1216A4160A6620168491E0160B0
S31508001F20D4E9022160699160D4E9021251604268DD
S31508001F30211D8A4201D1E268426066610268521E2A
S31508001F400260E06A2F69434608FA00F23A432A61BA
S31508001F502C4A00EB800002EB80004068A06087688E
S31508001F60E760876879608160E06A00EB800000E0DE
S31508001F700DE002EB8001616152F82010491C42F81D
S31508001F802010E06A2968C96A884200D3EB61DCF848
S31508001F9000000028AFD10CB1FEF7BCFFAC693CB11C
S31508001FA04746FFF765FE00B1EF61641EF9D1AE61E1
S31508001FB0E86948B114494FF080504FF001090860AC
S31508001FC0BFF34F8FBFF36F8FFFF720F94846BDE881
S31508001FD0F0870000480000202E5C46726565525462
S31508001FE04F535C7372635C7461736B732E6300008A
S31508001FF04572726F723A25732C25640D0A0000002B
S315080020005C430020B440002004ED00E0E8BF99E6F8
S3150800201098AFE4B880E4B8AA5BE9878EE781AB5D40
S315080020202D53544D3332E585A8E7B3BBE58897E5CC
S31508002030BC80E58F91E69DBF2D4672656552544F6B
S31508002040532DE58D95E58583E6B58BE8AF95435227
S315080020505450210D0A0000007820000800000020D6
S31508002060B40000002C0900082C210008B400002048
S31508002070E44600003C0900080000000000000000DB
S315080020800000000009090008050900089D08000865
S315080020900000000000000000000000000000000032
S315080020A00000000000000000000000000000000022
S315080020B00000000000000000AAAAAAAA000000006A
S315080020C00000000000000000000000000000000002
S315080020D000000000000000000000000000000000F2
S315080020E000000000000000000000000000000000E2
S315080020F01F000000000000000000000000000000B3
S315080021000204060800000000010203040102030499
S315080021100607080900A24A040000000000000000A3
S311080021200102030406070809000000007D
S70508000131C0
